{
  "contractName": "Jkp",
  "abi": [
    {
      "inputs": [],
      "stateMutability": "nonpayable",
      "type": "constructor"
    },
    {
      "anonymous": false,
      "inputs": [
        {
          "indexed": true,
          "internalType": "address",
          "name": "_from",
          "type": "address"
        },
        {
          "indexed": true,
          "internalType": "address",
          "name": "_to",
          "type": "address"
        },
        {
          "indexed": false,
          "internalType": "uint8",
          "name": "_result",
          "type": "uint8"
        }
      ],
      "name": "EndGame",
      "type": "event"
    },
    {
      "inputs": [
        {
          "internalType": "address",
          "name": "newOwner",
          "type": "address"
        }
      ],
      "name": "transferOwnership",
      "outputs": [],
      "stateMutability": "nonpayable",
      "type": "function"
    },
    {
      "inputs": [],
      "name": "check_creator",
      "outputs": [
        {
          "internalType": "bool",
          "name": "success",
          "type": "bool"
        }
      ],
      "stateMutability": "view",
      "type": "function",
      "constant": true
    },
    {
      "inputs": [
        {
          "internalType": "address",
          "name": "_other_player_address",
          "type": "address"
        }
      ],
      "name": "reset_game",
      "outputs": [
        {
          "internalType": "bool",
          "name": "success",
          "type": "bool"
        }
      ],
      "stateMutability": "nonpayable",
      "type": "function"
    },
    {
      "inputs": [
        {
          "internalType": "address",
          "name": "_other_player_address",
          "type": "address"
        },
        {
          "internalType": "bytes32",
          "name": "commitment",
          "type": "bytes32"
        }
      ],
      "name": "commit_choise",
      "outputs": [
        {
          "internalType": "bool",
          "name": "success",
          "type": "bool"
        }
      ],
      "stateMutability": "nonpayable",
      "type": "function"
    },
    {
      "inputs": [
        {
          "internalType": "address",
          "name": "_other_player_address",
          "type": "address"
        },
        {
          "internalType": "enum Jkp.Choice",
          "name": "choice",
          "type": "uint8"
        },
        {
          "internalType": "bytes32",
          "name": "nonce",
          "type": "bytes32"
        }
      ],
      "name": "reval_choise",
      "outputs": [
        {
          "internalType": "bool",
          "name": "success",
          "type": "bool"
        }
      ],
      "stateMutability": "nonpayable",
      "type": "function"
    },
    {
      "inputs": [
        {
          "internalType": "address",
          "name": "_other_player_address",
          "type": "address"
        }
      ],
      "name": "get_result",
      "outputs": [
        {
          "internalType": "uint8",
          "name": "result",
          "type": "uint8"
        }
      ],
      "stateMutability": "nonpayable",
      "type": "function"
    }
  ],
  "bytecode": "0x60806040523480156200001157600080fd5b50336000806101000a81548173ffffffffffffffffffffffffffffffffffffffff021916908373ffffffffffffffffffffffffffffffffffffffff160217905550600260016000600160038111156200006f576200006e62000625565b5b600381111562000084576200008362000625565b5b8152602001908152602001600020600060016003811115620000ab57620000aa62000625565b5b6003811115620000c057620000bf62000625565b5b815260200190815260200160002060006101000a81548160ff02191690836002811115620000f357620000f262000625565b5b021790555060018060006001600381111562000114576200011362000625565b5b600381111562000129576200012862000625565b5b815260200190815260200160002060006002600381111562000150576200014f62000625565b5b600381111562000165576200016462000625565b5b815260200190815260200160002060006101000a81548160ff0219169083600281111562000198576200019762000625565b5b021790555060006001600060016003811115620001ba57620001b962000625565b5b6003811115620001cf57620001ce62000625565b5b81526020019081526020016000206000600380811115620001f557620001f462000625565b5b60038111156200020a576200020962000625565b5b815260200190815260200160002060006101000a81548160ff021916908360028111156200023d576200023c62000625565b5b0217905550600060016000600260038111156200025f576200025e62000625565b5b600381111562000274576200027362000625565b5b81526020019081526020016000206000600160038111156200029b576200029a62000625565b5b6003811115620002b057620002af62000625565b5b815260200190815260200160002060006101000a81548160ff02191690836002811115620002e357620002e262000625565b5b02179055506002600160006002600381111562000305576200030462000625565b5b60038111156200031a576200031962000625565b5b815260200190815260200160002060006002600381111562000341576200034062000625565b5b600381111562000356576200035562000625565b5b815260200190815260200160002060006101000a81548160ff0219169083600281111562000389576200038862000625565b5b0217905550600180600060026003811115620003aa57620003a962000625565b5b6003811115620003bf57620003be62000625565b5b81526020019081526020016000206000600380811115620003e557620003e462000625565b5b6003811115620003fa57620003f962000625565b5b815260200190815260200160002060006101000a81548160ff021916908360028111156200042d576200042c62000625565b5b021790555060018060006003808111156200044d576200044c62000625565b5b600381111562000462576200046162000625565b5b815260200190815260200160002060006001600381111562000489576200048862000625565b5b60038111156200049e576200049d62000625565b5b815260200190815260200160002060006101000a81548160ff02191690836002811115620004d157620004d062000625565b5b0217905550600060016000600380811115620004f257620004f162000625565b5b600381111562000507576200050662000625565b5b81526020019081526020016000206000600260038111156200052e576200052d62000625565b5b600381111562000543576200054262000625565b5b815260200190815260200160002060006101000a81548160ff0219169083600281111562000576576200057562000625565b5b021790555060026001600060038081111562000597576200059662000625565b5b6003811115620005ac57620005ab62000625565b5b81526020019081526020016000206000600380811115620005d257620005d162000625565b5b6003811115620005e757620005e662000625565b5b815260200190815260200160002060006101000a81548160ff021916908360028111156200061a576200061962000625565b5b021790555062000654565b7f4e487b7100000000000000000000000000000000000000000000000000000000600052602160045260246000fd5b61189680620006646000396000f3fe608060405234801561001057600080fd5b50600436106100625760003560e01c806321e8b78514610067578063288df10914610097578063379fd01b146100c7578063f2fde38b146100f7578063f652be5614610113578063f9cf826414610143575b600080fd5b610081600480360381019061007c9190611198565b610161565b60405161008e91906111e1565b60405180910390f35b6100b160048036038101906100ac9190611232565b6105fb565b6040516100be919061128d565b60405180910390f35b6100e160048036038101906100dc91906112cd565b610749565b6040516100ee919061128d565b60405180910390f35b610111600480360381019061010c9190611198565b610b54565b005b61012d60048036038101906101289190611198565b610bef565b60405161013a919061128d565b60405180910390f35b61014b6110d3565b604051610158919061128d565b60405180910390f35b600080600381111561017657610175611320565b5b600360003373ffffffffffffffffffffffffffffffffffffffff1673ffffffffffffffffffffffffffffffffffffffff16815260200190815260200160002060008473ffffffffffffffffffffffffffffffffffffffff1673ffffffffffffffffffffffffffffffffffffffff16815260200190815260200160002060009054906101000a900460ff16600381111561021257610211611320565b5b1415610253576040517f08c379a000000000000000000000000000000000000000000000000000000000815260040161024a906113d2565b60405180910390fd5b6000600381111561026757610266611320565b5b600360008473ffffffffffffffffffffffffffffffffffffffff1673ffffffffffffffffffffffffffffffffffffffff16815260200190815260200160002060003373ffffffffffffffffffffffffffffffffffffffff1673ffffffffffffffffffffffffffffffffffffffff16815260200190815260200160002060009054906101000a900460ff16600381111561030357610302611320565b5b1415610344576040517f08c379a000000000000000000000000000000000000000000000000000000000815260040161033b90611464565b60405180910390fd5b600060016000600360003373ffffffffffffffffffffffffffffffffffffffff1673ffffffffffffffffffffffffffffffffffffffff16815260200190815260200160002060008673ffffffffffffffffffffffffffffffffffffffff1673ffffffffffffffffffffffffffffffffffffffff16815260200190815260200160002060009054906101000a900460ff1660038111156103e6576103e5611320565b5b60038111156103f8576103f7611320565b5b81526020019081526020016000206000600360008673ffffffffffffffffffffffffffffffffffffffff1673ffffffffffffffffffffffffffffffffffffffff16815260200190815260200160002060003373ffffffffffffffffffffffffffffffffffffffff1673ffffffffffffffffffffffffffffffffffffffff16815260200190815260200160002060009054906101000a900460ff1660038111156104a4576104a3611320565b5b60038111156104b6576104b5611320565b5b815260200190815260200160002060009054906101000a900460ff1690506001600460003373ffffffffffffffffffffffffffffffffffffffff1673ffffffffffffffffffffffffffffffffffffffff16815260200190815260200160002060008573ffffffffffffffffffffffffffffffffffffffff1673ffffffffffffffffffffffffffffffffffffffff16815260200190815260200160002060006101000a81548160ff0219169083151502179055508273ffffffffffffffffffffffffffffffffffffffff163373ffffffffffffffffffffffffffffffffffffffff167fca877aac494c1a237a54e53d1cf34403a485633cd56280f38c182df72936526f8360028111156105cb576105ca611320565b5b6040516105d891906111e1565b60405180910390a38060028111156105f3576105f2611320565b5b915050919050565b60008060001b600260003373ffffffffffffffffffffffffffffffffffffffff1673ffffffffffffffffffffffffffffffffffffffff16815260200190815260200160002060008573ffffffffffffffffffffffffffffffffffffffff1673ffffffffffffffffffffffffffffffffffffffff16815260200190815260200160002054146106be576040517f08c379a00000000000000000000000000000000000000000000000000000000081526004016106b5906114d0565b60405180910390fd5b81600260003373ffffffffffffffffffffffffffffffffffffffff1673ffffffffffffffffffffffffffffffffffffffff16815260200190815260200160002060008573ffffffffffffffffffffffffffffffffffffffff1673ffffffffffffffffffffffffffffffffffffffff168152602001908152602001600020819055506001905092915050565b60008060001b600260003373ffffffffffffffffffffffffffffffffffffffff1673ffffffffffffffffffffffffffffffffffffffff16815260200190815260200160002060008673ffffffffffffffffffffffffffffffffffffffff1673ffffffffffffffffffffffffffffffffffffffff16815260200190815260200160002054141561080d576040517f08c379a00000000000000000000000000000000000000000000000000000000081526004016108049061153c565b60405180910390fd5b6000801b600260008673ffffffffffffffffffffffffffffffffffffffff1673ffffffffffffffffffffffffffffffffffffffff16815260200190815260200160002060003373ffffffffffffffffffffffffffffffffffffffff1673ffffffffffffffffffffffffffffffffffffffff1681526020019081526020016000205414156108cf576040517f08c379a00000000000000000000000000000000000000000000000000000000081526004016108c6906115ce565b60405180910390fd5b600060038111156108e3576108e2611320565b5b600360003373ffffffffffffffffffffffffffffffffffffffff1673ffffffffffffffffffffffffffffffffffffffff16815260200190815260200160002060008673ffffffffffffffffffffffffffffffffffffffff1673ffffffffffffffffffffffffffffffffffffffff16815260200190815260200160002060009054906101000a900460ff16600381111561097f5761097e611320565b5b146109bf576040517f08c379a00000000000000000000000000000000000000000000000000000000081526004016109b69061163a565b60405180910390fd5b600260003373ffffffffffffffffffffffffffffffffffffffff1673ffffffffffffffffffffffffffffffffffffffff16815260200190815260200160002060008573ffffffffffffffffffffffffffffffffffffffff1673ffffffffffffffffffffffffffffffffffffffff168152602001908152602001600020548383604051602001610a4f9291906116ea565b6040516020818303038152906040528051906020012014610aa5576040517f08c379a0000000000000000000000000000000000000000000000000000000008152600401610a9c90611788565b60405180910390fd5b82600360003373ffffffffffffffffffffffffffffffffffffffff1673ffffffffffffffffffffffffffffffffffffffff16815260200190815260200160002060008673ffffffffffffffffffffffffffffffffffffffff1673ffffffffffffffffffffffffffffffffffffffff16815260200190815260200160002060006101000a81548160ff02191690836003811115610b4457610b43611320565b5b0217905550600190509392505050565b60008054906101000a900473ffffffffffffffffffffffffffffffffffffffff1673ffffffffffffffffffffffffffffffffffffffff163373ffffffffffffffffffffffffffffffffffffffff1614610bac57600080fd5b806000806101000a81548173ffffffffffffffffffffffffffffffffffffffff021916908373ffffffffffffffffffffffffffffffffffffffff16021790555050565b600081600460003373ffffffffffffffffffffffffffffffffffffffff1673ffffffffffffffffffffffffffffffffffffffff16815260200190815260200160002060008273ffffffffffffffffffffffffffffffffffffffff1673ffffffffffffffffffffffffffffffffffffffff16815260200190815260200160002060009054906101000a900460ff168015610d0e5750600460008273ffffffffffffffffffffffffffffffffffffffff1673ffffffffffffffffffffffffffffffffffffffff16815260200190815260200160002060003373ffffffffffffffffffffffffffffffffffffffff1673ffffffffffffffffffffffffffffffffffffffff16815260200190815260200160002060009054906101000a900460ff165b610d4d576040517f08c379a0000000000000000000000000000000000000000000000000000000008152600401610d4490611840565b60405180910390fd5b6000600460003373ffffffffffffffffffffffffffffffffffffffff1673ffffffffffffffffffffffffffffffffffffffff16815260200190815260200160002060008573ffffffffffffffffffffffffffffffffffffffff1673ffffffffffffffffffffffffffffffffffffffff16815260200190815260200160002060006101000a81548160ff0219169083151502179055506000600460008573ffffffffffffffffffffffffffffffffffffffff1673ffffffffffffffffffffffffffffffffffffffff16815260200190815260200160002060003373ffffffffffffffffffffffffffffffffffffffff1673ffffffffffffffffffffffffffffffffffffffff16815260200190815260200160002060006101000a81548160ff0219169083151502179055506000801b600260003373ffffffffffffffffffffffffffffffffffffffff1673ffffffffffffffffffffffffffffffffffffffff16815260200190815260200160002060008573ffffffffffffffffffffffffffffffffffffffff1673ffffffffffffffffffffffffffffffffffffffff168152602001908152602001600020819055506000801b600260008573ffffffffffffffffffffffffffffffffffffffff1673ffffffffffffffffffffffffffffffffffffffff16815260200190815260200160002060003373ffffffffffffffffffffffffffffffffffffffff1673ffffffffffffffffffffffffffffffffffffffff168152602001908152602001600020819055506000600360003373ffffffffffffffffffffffffffffffffffffffff1673ffffffffffffffffffffffffffffffffffffffff16815260200190815260200160002060008573ffffffffffffffffffffffffffffffffffffffff1673ffffffffffffffffffffffffffffffffffffffff16815260200190815260200160002060006101000a81548160ff0219169083600381111561101f5761101e611320565b5b02179055506000600360008573ffffffffffffffffffffffffffffffffffffffff1673ffffffffffffffffffffffffffffffffffffffff16815260200190815260200160002060003373ffffffffffffffffffffffffffffffffffffffff1673ffffffffffffffffffffffffffffffffffffffff16815260200190815260200160002060006101000a81548160ff021916908360038111156110c4576110c3611320565b5b02179055506001915050919050565b60008060009054906101000a900473ffffffffffffffffffffffffffffffffffffffff1673ffffffffffffffffffffffffffffffffffffffff163373ffffffffffffffffffffffffffffffffffffffff161461112e57600080fd5b6001905090565b600080fd5b600073ffffffffffffffffffffffffffffffffffffffff82169050919050565b60006111658261113a565b9050919050565b6111758161115a565b811461118057600080fd5b50565b6000813590506111928161116c565b92915050565b6000602082840312156111ae576111ad611135565b5b60006111bc84828501611183565b91505092915050565b600060ff82169050919050565b6111db816111c5565b82525050565b60006020820190506111f660008301846111d2565b92915050565b6000819050919050565b61120f816111fc565b811461121a57600080fd5b50565b60008135905061122c81611206565b92915050565b6000806040838503121561124957611248611135565b5b600061125785828601611183565b92505060206112688582860161121d565b9150509250929050565b60008115159050919050565b61128781611272565b82525050565b60006020820190506112a2600083018461127e565b92915050565b600481106112b557600080fd5b50565b6000813590506112c7816112a8565b92915050565b6000806000606084860312156112e6576112e5611135565b5b60006112f486828701611183565b9350506020611305868287016112b8565b92505060406113168682870161121d565b9150509250925092565b7f4e487b7100000000000000000000000000000000000000000000000000000000600052602160045260246000fd5b600082825260208201905092915050565b7f596f75206861766520746f20726576616c20796f75722063686f69736520666960008201527f7273742100000000000000000000000000000000000000000000000000000000602082015250565b60006113bc60248361134f565b91506113c782611360565b604082019050919050565b600060208201905081810360008301526113eb816113af565b9050919050565b7f596f7572206f70706f6e656e74206861766520746f20726576616c206869732060008201527f63686f6973652066697273742100000000000000000000000000000000000000602082015250565b600061144e602d8361134f565b9150611459826113f2565b604082019050919050565b6000602082019050818103600083015261147d81611441565b9050919050565b7f43686f69736520697320616c726561647920636f6d6d69746564210000000000600082015250565b60006114ba601b8361134f565b91506114c582611484565b602082019050919050565b600060208201905081810360008301526114e9816114ad565b9050919050565b7f596f75722063686f6973652073686f756c6420626520636f6d6d697465642100600082015250565b6000611526601f8361134f565b9150611531826114f0565b602082019050919050565b6000602082019050818103600083015261155581611519565b9050919050565b7f596f7572206f70706f6e656e7427732063686f6973652073686f756c6420626560008201527f20636f6d6d697465642100000000000000000000000000000000000000000000602082015250565b60006115b8602a8361134f565b91506115c38261155c565b604082019050919050565b600060208201905081810360008301526115e7816115ab565b9050919050565b7f416c726561647920726576616c65642100000000000000000000000000000000600082015250565b600061162460108361134f565b915061162f826115ee565b602082019050919050565b6000602082019050818103600083015261165381611617565b9050919050565b6004811061166b5761166a611320565b5b50565b600081905061167c8261165a565b919050565b600061168c8261166e565b9050919050565b60008160f81b9050919050565b60006116ab82611693565b9050919050565b6116c36116be82611681565b6116a0565b82525050565b6000819050919050565b6116e46116df826111fc565b6116c9565b82525050565b60006116f682856116b2565b60018201915061170682846116d3565b6020820191508190509392505050565b7f43616e2774206163636570742063686f6973653a20696e76616c69642068617360008201527f6800000000000000000000000000000000000000000000000000000000000000602082015250565b600061177260218361134f565b915061177d82611716565b604082019050919050565b600060208201905081810360008301526117a181611765565b9050919050565b7f4f6e65206f6620746865206f70706f6e656e747320686176656e27742066696e60008201527f6973682063757272656e742067616d652028636865636b20726573756c74292e60208201527f2046696e6973682063757272656e742067616d65206669727374210000000000604082015250565b600061182a605b8361134f565b9150611835826117a8565b606082019050919050565b600060208201905081810360008301526118598161181d565b905091905056fea264697066735822122020c4e1920f97bd34f3dc313a65233fe5b5152c43eb30284acb3b0852709ba22864736f6c634300080a0033",
  "immutableReferences": {},
  "source": "pragma solidity ^0.8.7;\n\ncontract Ownable {\n\n    address owner;\n\n    constructor() {\n        owner = msg.sender;\n    }\n \n    modifier onlyOwner() {\n        require(msg.sender == owner);\n        _;\n    }\n    \n    function transferOwnership(address newOwner) public onlyOwner {\n\t    owner = newOwner;\n    }\n    \n\n}\n\ncontract Jkp is Ownable {\n    // Choices enum\n    enum Choice {\n        None,\n        Rock,\n        Paper,\n        Scissors\n    }\n    \n    // EndGame variations enum\n    enum GameState {\n        Win,\n        Lose,\n        Draw\n    }\n    \n    // A matrix containing result of the game depedning on its states\n    mapping(Choice => mapping(Choice => GameState)) private endgame_states;\n    \n    constructor() {\n        endgame_states[Choice.Rock][Choice.Rock] = GameState.Draw;\n        endgame_states[Choice.Rock][Choice.Paper] = GameState.Lose;\n        endgame_states[Choice.Rock][Choice.Scissors] = GameState.Win;\n        endgame_states[Choice.Paper][Choice.Rock] = GameState.Win;\n        endgame_states[Choice.Paper][Choice.Paper] = GameState.Draw;\n        endgame_states[Choice.Paper][Choice.Scissors] = GameState.Lose;\n        endgame_states[Choice.Scissors][Choice.Rock] = GameState.Lose;\n        endgame_states[Choice.Scissors][Choice.Paper] = GameState.Win;\n        endgame_states[Choice.Scissors][Choice.Scissors] = GameState.Draw;\n    }\n    \n    // contains commitments [_player][_other_player]\n    mapping (address => mapping (address => bytes32)) choise_hashes;\n    // contains states of choises choise[_player][_other_player]\n    mapping (address => mapping (address => Choice)) choises;\n    // contains \"ready to reset game\" flag for _player][_other_player] (both must accept game reset)\n    mapping (address => mapping (address => bool)) ready_for_reset;\n    \n    \n    modifier onlyIfBothResetReady(address _other_player_address) {\n        require(ready_for_reset[msg.sender][_other_player_address] && ready_for_reset[_other_player_address][msg.sender], \"One of the opponents haven't finish current game (check result). Finish current game first!\");\n        _;\n    }\n    \n    function check_creator() public view onlyOwner returns (bool success) {\n        return true;\n    }\n    \n    function reset_game(address _other_player_address) public onlyIfBothResetReady(_other_player_address) returns (bool success) {\n        ready_for_reset[msg.sender][_other_player_address] = false;\n        ready_for_reset[_other_player_address][msg.sender] = false;\n        choise_hashes[msg.sender][_other_player_address] = 0;\n        choise_hashes[_other_player_address][msg.sender] = 0;\n        choises[msg.sender][_other_player_address] = Choice.None;\n        choises[_other_player_address][msg.sender] = Choice.None;\n        return true;\n    }\n    \n    function commit_choise(address _other_player_address, bytes32 commitment) public returns (bool success) {\n        require(choise_hashes[msg.sender][_other_player_address] == 0, \"Choise is already commited!\");\n        choise_hashes[msg.sender][_other_player_address] = commitment;\n        return true;\n    }\n    \n    function reval_choise(address _other_player_address, Choice choice, bytes32 nonce) public returns (bool success) {\n        require(choise_hashes[msg.sender][_other_player_address] != 0, \"Your choise should be commited!\");\n        require(choise_hashes[_other_player_address][msg.sender] != 0, \"Your opponent's choise should be commited!\");\n        require(choises[msg.sender][_other_player_address] == Choice.None, \"Already revaled!\");\n         // Check the hash to ensure the commitment is correct\n        require(keccak256(abi.encodePacked(choice, nonce)) == choise_hashes[msg.sender][_other_player_address], \"Can't accept choise: invalid hash\");\n        choises[msg.sender][_other_player_address] = choice;\n        return true;\n    }\n    \n    function get_result(address _other_player_address) public returns (uint8 result) {\n        require(choises[msg.sender][_other_player_address] != Choice.None, \"You have to reval your choise first!\");\n        require(choises[_other_player_address][msg.sender] != Choice.None, \"Your opponent have to reval his choise first!\");\n        GameState game_result = endgame_states[choises[msg.sender][_other_player_address]][choises[_other_player_address][msg.sender]];\n        ready_for_reset[msg.sender][_other_player_address] = true;\n        emit EndGame(msg.sender, _other_player_address, uint8(game_result));\n        return uint8(game_result);\n    }\n    \n    event EndGame(address indexed _from, address indexed _to, uint8 _result);\n}\n",
  "sourcePath": "/home/godlux/Documents/EthLab/Funding/contracts/Jkp.sol",
  "compiler": {
    "name": "solc",
    "version": "0.8.10+commit.fc410830.Emscripten.clang"
  },
  "schemaVersion": "3.4.3",
  "updatedAt": "2021-12-03T12:36:20.746Z",
  "networkType": "ethereum",
  "devdoc": {
    "kind": "dev",
    "methods": {},
    "version": 1
  },
  "userdoc": {
    "kind": "user",
    "methods": {},
    "version": 1
  }
}