{
  "contractName": "Ownable",
  "abi": [
    {
      "inputs": [],
      "stateMutability": "nonpayable",
      "type": "constructor"
    },
    {
      "inputs": [
        {
          "internalType": "address",
          "name": "newOwner",
          "type": "address"
        }
      ],
      "name": "transferOwnership",
      "outputs": [],
      "stateMutability": "nonpayable",
      "type": "function"
    }
  ],
  "bytecode": "0x608060405234801561001057600080fd5b50336000806101000a81548173ffffffffffffffffffffffffffffffffffffffff021916908373ffffffffffffffffffffffffffffffffffffffff1602179055506101ad806100606000396000f3fe608060405234801561001057600080fd5b506004361061002b5760003560e01c8063f2fde38b14610030575b600080fd5b61004a6004803603810190610045919061014a565b61004c565b005b60008054906101000a900473ffffffffffffffffffffffffffffffffffffffff1673ffffffffffffffffffffffffffffffffffffffff163373ffffffffffffffffffffffffffffffffffffffff16146100a457600080fd5b806000806101000a81548173ffffffffffffffffffffffffffffffffffffffff021916908373ffffffffffffffffffffffffffffffffffffffff16021790555050565b600080fd5b600073ffffffffffffffffffffffffffffffffffffffff82169050919050565b6000610117826100ec565b9050919050565b6101278161010c565b811461013257600080fd5b50565b6000813590506101448161011e565b92915050565b6000602082840312156101605761015f6100e7565b5b600061016e84828501610135565b9150509291505056fea2646970667358221220bd9ded94692a1f31fb668e6556bc8c000764a414f644258136300387de4c2a4264736f6c634300080a0033",
  "immutableReferences": {},
  "source": "pragma solidity ^0.8.7;\n\ncontract Ownable {\n\n    address owner;\n\n    constructor() {\n        owner = msg.sender;\n    }\n \n    modifier onlyOwner() {\n        require(msg.sender == owner);\n        _;\n    }\n    \n    function transferOwnership(address newOwner) public onlyOwner {\n\t    owner = newOwner;\n    }\n    \n\n}\n\ncontract Jkp is Ownable {\n    // Choices enum\n    enum Choice {\n        None,\n        Rock,\n        Paper,\n        Scissors\n    }\n    \n    // EndGame variations enum\n    enum GameState {\n        Win,\n        Lose,\n        Draw\n    }\n    \n    // A matrix containing result of the game depedning on its states\n    mapping(Choice => mapping(Choice => GameState)) private endgame_states;\n    \n    constructor() {\n        endgame_states[Choice.Rock][Choice.Rock] = GameState.Draw;\n        endgame_states[Choice.Rock][Choice.Paper] = GameState.Lose;\n        endgame_states[Choice.Rock][Choice.Scissors] = GameState.Win;\n        endgame_states[Choice.Paper][Choice.Rock] = GameState.Win;\n        endgame_states[Choice.Paper][Choice.Paper] = GameState.Draw;\n        endgame_states[Choice.Paper][Choice.Scissors] = GameState.Lose;\n        endgame_states[Choice.Scissors][Choice.Rock] = GameState.Lose;\n        endgame_states[Choice.Scissors][Choice.Paper] = GameState.Win;\n        endgame_states[Choice.Scissors][Choice.Scissors] = GameState.Draw;\n    }\n    \n    // contains commitments [_player][_other_player]\n    mapping (address => mapping (address => bytes32)) choise_hashes;\n    // contains states of choises choise[_player][_other_player]\n    mapping (address => mapping (address => Choice)) choises;\n    // contains \"ready to reset game\" flag for _player][_other_player] (both must accept game reset)\n    mapping (address => mapping (address => bool)) ready_for_reset;\n    \n    \n    modifier onlyIfBothResetReady(address _other_player_address) {\n        require(ready_for_reset[msg.sender][_other_player_address] && ready_for_reset[_other_player_address][msg.sender], \"One of the opponents haven't finish current game (check result). Finish current game first!\");\n        _;\n    }\n    \n    function check_creator() public view onlyOwner returns (bool success) {\n        return true;\n    }\n    \n    function reset_game(address _other_player_address) public onlyIfBothResetReady(_other_player_address) returns (bool success) {\n        ready_for_reset[msg.sender][_other_player_address] = false;\n        ready_for_reset[_other_player_address][msg.sender] = false;\n        choise_hashes[msg.sender][_other_player_address] = 0;\n        choise_hashes[_other_player_address][msg.sender] = 0;\n        choises[msg.sender][_other_player_address] = Choice.None;\n        choises[_other_player_address][msg.sender] = Choice.None;\n        return true;\n    }\n    \n    function commit_choise(address _other_player_address, bytes32 commitment) public returns (bool success) {\n        require(choise_hashes[msg.sender][_other_player_address] == 0, \"Choise is already commited!\");\n        choise_hashes[msg.sender][_other_player_address] = commitment;\n        return true;\n    }\n    \n    function reval_choise(address _other_player_address, Choice choice, bytes32 nonce) public returns (bool success) {\n        require(choise_hashes[msg.sender][_other_player_address] != 0, \"Your choise should be commited!\");\n        require(choise_hashes[_other_player_address][msg.sender] != 0, \"Your opponent's choise should be commited!\");\n        require(choises[msg.sender][_other_player_address] == Choice.None, \"Already revaled!\");\n         // Check the hash to ensure the commitment is correct\n        require(keccak256(abi.encodePacked(choice, nonce)) == choise_hashes[msg.sender][_other_player_address], \"Can't accept choise: invalid hash\");\n        choises[msg.sender][_other_player_address] = choice;\n        return true;\n    }\n    \n    function get_result(address _other_player_address) public returns (uint8 result) {\n        require(choises[msg.sender][_other_player_address] != Choice.None, \"You have to reval your choise first!\");\n        require(choises[_other_player_address][msg.sender] != Choice.None, \"Your opponent have to reval his choise first!\");\n        GameState game_result = endgame_states[choises[msg.sender][_other_player_address]][choises[_other_player_address][msg.sender]];\n        ready_for_reset[msg.sender][_other_player_address] = true;\n        emit EndGame(msg.sender, _other_player_address, uint8(game_result));\n        return uint8(game_result);\n    }\n    \n    event EndGame(address indexed _from, address indexed _to, uint8 _result);\n}\n",
  "sourcePath": "/home/godlux/Documents/EthLab/Funding/contracts/Jkp.sol",
  "compiler": {
    "name": "solc",
    "version": "0.8.10+commit.fc410830.Emscripten.clang"
  },
  "schemaVersion": "3.4.3",
  "updatedAt": "2021-12-03T12:36:19.614Z",
  "devdoc": {
    "kind": "dev",
    "methods": {},
    "version": 1
  },
  "userdoc": {
    "kind": "user",
    "methods": {},
    "version": 1
  }
}